{
  "address": "0x8A791620dd6260079BF849Dc5567aDC3F2FdC318",
  "abi": [
    {
      "inputs": [
        {
          "internalType": "string",
          "name": "_tokenName",
          "type": "string"
        },
        {
          "internalType": "string",
          "name": "_tokenSymbol",
          "type": "string"
        },
        {
          "internalType": "uint256",
          "name": "_purchaseRatio",
          "type": "uint256"
        },
        {
          "internalType": "uint256",
          "name": "_betPrice",
          "type": "uint256"
        },
        {
          "internalType": "uint256",
          "name": "_betFee",
          "type": "uint256"
        }
      ],
      "stateMutability": "nonpayable",
      "type": "constructor"
    },
    {
      "anonymous": false,
      "inputs": [
        {
          "indexed": true,
          "internalType": "address",
          "name": "previousOwner",
          "type": "address"
        },
        {
          "indexed": true,
          "internalType": "address",
          "name": "newOwner",
          "type": "address"
        }
      ],
      "name": "OwnershipTransferred",
      "type": "event"
    },
    {
      "inputs": [
        {
          "internalType": "uint256",
          "name": "",
          "type": "uint256"
        }
      ],
      "name": "_slots",
      "outputs": [
        {
          "internalType": "address",
          "name": "",
          "type": "address"
        }
      ],
      "stateMutability": "view",
      "type": "function"
    },
    {
      "inputs": [
        {
          "internalType": "address",
          "name": "sender",
          "type": "address"
        }
      ],
      "name": "bet",
      "outputs": [],
      "stateMutability": "nonpayable",
      "type": "function"
    },
    {
      "inputs": [],
      "name": "betFee",
      "outputs": [
        {
          "internalType": "uint256",
          "name": "",
          "type": "uint256"
        }
      ],
      "stateMutability": "view",
      "type": "function"
    },
    {
      "inputs": [],
      "name": "betFees",
      "outputs": [
        {
          "internalType": "uint256",
          "name": "",
          "type": "uint256"
        }
      ],
      "stateMutability": "view",
      "type": "function"
    },
    {
      "inputs": [
        {
          "internalType": "uint256",
          "name": "times",
          "type": "uint256"
        },
        {
          "internalType": "address",
          "name": "sender",
          "type": "address"
        }
      ],
      "name": "betMany",
      "outputs": [],
      "stateMutability": "nonpayable",
      "type": "function"
    },
    {
      "inputs": [],
      "name": "betPrice",
      "outputs": [
        {
          "internalType": "uint256",
          "name": "",
          "type": "uint256"
        }
      ],
      "stateMutability": "view",
      "type": "function"
    },
    {
      "inputs": [],
      "name": "betsClosingTime",
      "outputs": [
        {
          "internalType": "uint256",
          "name": "",
          "type": "uint256"
        }
      ],
      "stateMutability": "view",
      "type": "function"
    },
    {
      "inputs": [],
      "name": "betsOpen",
      "outputs": [
        {
          "internalType": "bool",
          "name": "",
          "type": "bool"
        }
      ],
      "stateMutability": "view",
      "type": "function"
    },
    {
      "inputs": [],
      "name": "closeLottery",
      "outputs": [],
      "stateMutability": "nonpayable",
      "type": "function"
    },
    {
      "inputs": [],
      "name": "isLotteryClosed",
      "outputs": [
        {
          "internalType": "bool",
          "name": "",
          "type": "bool"
        }
      ],
      "stateMutability": "view",
      "type": "function"
    },
    {
      "inputs": [
        {
          "internalType": "address",
          "name": "account",
          "type": "address"
        }
      ],
      "name": "isOwner",
      "outputs": [
        {
          "internalType": "bool",
          "name": "",
          "type": "bool"
        }
      ],
      "stateMutability": "view",
      "type": "function"
    },
    {
      "inputs": [],
      "name": "isPastLotteryClosingTime",
      "outputs": [
        {
          "internalType": "bool",
          "name": "",
          "type": "bool"
        }
      ],
      "stateMutability": "view",
      "type": "function"
    },
    {
      "inputs": [
        {
          "internalType": "address",
          "name": "account",
          "type": "address"
        }
      ],
      "name": "isWinner",
      "outputs": [
        {
          "internalType": "bool",
          "name": "",
          "type": "bool"
        }
      ],
      "stateMutability": "view",
      "type": "function"
    },
    {
      "inputs": [
        {
          "internalType": "uint256",
          "name": "closingTime",
          "type": "uint256"
        }
      ],
      "name": "openBets",
      "outputs": [],
      "stateMutability": "nonpayable",
      "type": "function"
    },
    {
      "inputs": [],
      "name": "owner",
      "outputs": [
        {
          "internalType": "address",
          "name": "",
          "type": "address"
        }
      ],
      "stateMutability": "view",
      "type": "function"
    },
    {
      "inputs": [],
      "name": "ownerPool",
      "outputs": [
        {
          "internalType": "uint256",
          "name": "",
          "type": "uint256"
        }
      ],
      "stateMutability": "view",
      "type": "function"
    },
    {
      "inputs": [
        {
          "internalType": "uint256",
          "name": "amount",
          "type": "uint256"
        }
      ],
      "name": "ownerWithdraw",
      "outputs": [],
      "stateMutability": "nonpayable",
      "type": "function"
    },
    {
      "inputs": [],
      "name": "paymentToken",
      "outputs": [
        {
          "internalType": "contract LotteryToken",
          "name": "",
          "type": "address"
        }
      ],
      "stateMutability": "view",
      "type": "function"
    },
    {
      "inputs": [
        {
          "internalType": "address",
          "name": "",
          "type": "address"
        }
      ],
      "name": "prizeAmount",
      "outputs": [
        {
          "internalType": "uint256",
          "name": "",
          "type": "uint256"
        }
      ],
      "stateMutability": "view",
      "type": "function"
    },
    {
      "inputs": [],
      "name": "prizePool",
      "outputs": [
        {
          "internalType": "uint256",
          "name": "",
          "type": "uint256"
        }
      ],
      "stateMutability": "view",
      "type": "function"
    },
    {
      "inputs": [
        {
          "internalType": "uint256",
          "name": "amount",
          "type": "uint256"
        },
        {
          "internalType": "address",
          "name": "sender",
          "type": "address"
        }
      ],
      "name": "prizeWithdraw",
      "outputs": [],
      "stateMutability": "nonpayable",
      "type": "function"
    },
    {
      "inputs": [],
      "name": "purchaseRatio",
      "outputs": [
        {
          "internalType": "uint256",
          "name": "",
          "type": "uint256"
        }
      ],
      "stateMutability": "view",
      "type": "function"
    },
    {
      "inputs": [],
      "name": "purchaseTokens",
      "outputs": [],
      "stateMutability": "payable",
      "type": "function"
    },
    {
      "inputs": [],
      "name": "renounceOwnership",
      "outputs": [],
      "stateMutability": "nonpayable",
      "type": "function"
    },
    {
      "inputs": [
        {
          "internalType": "uint256",
          "name": "amount",
          "type": "uint256"
        },
        {
          "internalType": "address",
          "name": "sender",
          "type": "address"
        }
      ],
      "name": "returnTokens",
      "outputs": [],
      "stateMutability": "nonpayable",
      "type": "function"
    },
    {
      "inputs": [
        {
          "internalType": "address",
          "name": "account",
          "type": "address"
        }
      ],
      "name": "tokenBalance",
      "outputs": [
        {
          "internalType": "uint256",
          "name": "",
          "type": "uint256"
        }
      ],
      "stateMutability": "view",
      "type": "function"
    },
    {
      "inputs": [],
      "name": "tokenSymbol",
      "outputs": [
        {
          "internalType": "string",
          "name": "",
          "type": "string"
        }
      ],
      "stateMutability": "view",
      "type": "function"
    },
    {
      "inputs": [
        {
          "internalType": "address",
          "name": "newOwner",
          "type": "address"
        }
      ],
      "name": "transferOwnership",
      "outputs": [],
      "stateMutability": "nonpayable",
      "type": "function"
    },
    {
      "inputs": [],
      "name": "winner",
      "outputs": [
        {
          "internalType": "address",
          "name": "",
          "type": "address"
        }
      ],
      "stateMutability": "view",
      "type": "function"
    }
  ],
  "transactionHash": "0xe2c2ebc488d9cc95d924543aaa2d3e31bf9aab01a74df518c4ea43bc2387ac8f",
  "args": [
    "LotteryToken",
    "LTO",
    "100000000000000000000",
    "1000000000000000000",
    "200000000000000000"
  ],
  "numDeployments": 10,
  "solcInputHash": "bf9bbe3f892b062f7cc49c02160b801f",
  "bytecode": "0x60806040523480156200001157600080fd5b5060405162002ad038038062002ad08339810160408190526200003491620001da565b6200003f33620000af565b84846040516200004f90620000ff565b6200005c9291906200028d565b604051809103906000f08015801562000079573d6000803e3d6000fd5b50600180546001600160a01b0319166001600160a01b039290921691909117905560029290925560035560045550620002bf9050565b600080546001600160a01b038381166001600160a01b0319831681178455604051919092169283917f8be0079c531659141344cd1fd0a4f28419497f9722a3daafe3b4186f6b6457e09190a35050565b611568806200156883390190565b634e487b7160e01b600052604160045260246000fd5b60005b838110156200014057818101518382015260200162000126565b50506000910152565b600082601f8301126200015b57600080fd5b81516001600160401b03808211156200017857620001786200010d565b604051601f8301601f19908116603f01168101908282118183101715620001a357620001a36200010d565b81604052838152866020858801011115620001bd57600080fd5b620001d084602083016020890162000123565b9695505050505050565b600080600080600060a08688031215620001f357600080fd5b85516001600160401b03808211156200020b57600080fd5b6200021989838a0162000149565b965060208801519150808211156200023057600080fd5b506200023f8882890162000149565b60408801516060890151608090990151979a919950979695509350505050565b600081518084526200027981602086016020860162000123565b601f01601f19169290920160200192915050565b604081526000620002a260408301856200025f565b8281036020840152620002b681856200025f565b95945050505050565b61129980620002cf6000396000f3fe6080604052600436106101c15760003560e01c8063719ce73e116100f7578063b7e1eced11610095578063d1b258ff11610064578063d1b258ff146104b9578063dfbf53ae146104d3578063eedc966a146104f3578063f2fde38b1461051357600080fd5b8063b7e1eced14610454578063b8af21b91461046a578063cfd8a17514610483578063d0619dd41461049957600080fd5b80638da5cb5b116100d15780638da5cb5b146103e057806395cadc47146103fe578063990a49f5146104145780639d9ca28d1461043457600080fd5b8063719ce73e146103925780637b61c320146103a8578063841e6ce9146103ca57600080fd5b80632f54bf6e1161016457806333f707d11161013e57806333f707d1146103285780636687376e146103485780636fd0981614610368578063715018a61461037d57600080fd5b80632f54bf6e146102d15780633013ce29146103005780633290ce291461032057600080fd5b80631a1b72d2116101a05780631a1b72d21461023657806324b057541461025657806325f76f171461028e5780632b65e040146102bb57600080fd5b8062ec8fe7146101c65780630474a68e146101f057806318c3496514610212575b600080fd5b3480156101d257600080fd5b506101db610533565b60405190151581526020015b60405180910390f35b3480156101fc57600080fd5b5061021061020b366004610fe9565b610546565b005b34801561021e57600080fd5b5061022860075481565b6040519081526020016101e7565b34801561024257600080fd5b5061021061025136600461100b565b610554565b34801561026257600080fd5b50610276610271366004611037565b61066a565b6040516001600160a01b0390911681526020016101e7565b34801561029a57600080fd5b506102286102a9366004610fe9565b600b6020526000908152604090205481565b3480156102c757600080fd5b50610228600c5481565b3480156102dd57600080fd5b506101db6102ec366004610fe9565b6000546001600160a01b0391821691161490565b34801561030c57600080fd5b50600154610276906001600160a01b031681565b610210610694565b34801561033457600080fd5b50610210610343366004611037565b610707565b34801561035457600080fd5b5061021061036336600461100b565b610819565b34801561037457600080fd5b50610210610827565b34801561038957600080fd5b50610210610952565b34801561039e57600080fd5b5061022860065481565b3480156103b457600080fd5b506103bd610966565b6040516101e79190611074565b3480156103d657600080fd5b5061022860045481565b3480156103ec57600080fd5b506000546001600160a01b0316610276565b34801561040a57600080fd5b5061022860025481565b34801561042057600080fd5b5061021061042f366004611037565b6109d8565b34801561044057600080fd5b506101db61044f366004610fe9565b610aa1565b34801561046057600080fd5b5061022860095481565b34801561047657600080fd5b5060055460ff16156101db565b34801561048f57600080fd5b5061022860035481565b3480156104a557600080fd5b506102106104b436600461100b565b610aca565b3480156104c557600080fd5b506005546101db9060ff1681565b3480156104df57600080fd5b50600a54610276906001600160a01b031681565b3480156104ff57600080fd5b5061022861050e366004610fe9565b610bd5565b34801561051f57600080fd5b5061021061052e366004610fe9565b610c44565b600061054160075442101590565b905090565b610551600182610cba565b50565b60015460405163079cc67960e41b81526001600160a01b03838116600483015260248201859052909116906379cc679090604401600060405180830381600087803b1580156105a257600080fd5b505af11580156105b6573d6000803e3d6000fd5b5050505060006105c583610ed1565b90506000826001600160a01b03168260405160006040518083038185875af1925050503d8060008114610614576040519150601f19603f3d011682016040523d82523d6000602084013e610619565b606091505b50509050806106645760405162461bcd60e51b81526020600482015260126024820152710ccc2d2d8cac840e8de40e6cadcc840cae8d60731b60448201526064015b60405180910390fd5b50505050565b6008818154811061067a57600080fd5b6000918252602090912001546001600160a01b0316905081565b600061069f34610ee1565b6001546040516340c10f1960e01b8152336004820152602481018390529192506001600160a01b0316906340c10f1990604401600060405180830381600087803b1580156106ec57600080fd5b505af1158015610700573d6000803e3d6000fd5b5050505050565b61070f610ef1565b600c548111156107615760405162461bcd60e51b815260206004820152601960248201527f4e6f7420656e6f756768206665657320636f6c6c656374656400000000000000604482015260640161065b565b80600c600082825461077391906110bd565b909155506000905061078482610ed1565b604051909150600090339083908381818185875af1925050503d80600081146107c9576040519150601f19603f3d011682016040523d82523d6000602084013e6107ce565b606091505b50509050806108145760405162461bcd60e51b81526020600482015260126024820152710ccc2d2d8cac840e8de40e6cadcc840cae8d60731b604482015260640161065b565b505050565b6108238282610cba565b5050565b6007544210156108705760405162461bcd60e51b81526020600482015260146024820152734c6f7474657279207374696c6c2061637469766560601b604482015260640161065b565b60055460ff166108b35760405162461bcd60e51b815260206004820152600e60248201526d185b1c9958591e4818db1bdcd95960921b604482015260640161065b565b60085415610946576008546000906108cb90446110e6565b9050600881815481106108e0576108e06110fa565b6000918252602080832090910154600a80546001600160a01b0319166001600160a01b039092169182179055600654908352600b9091526040822080549192909161092c908490611110565b90915550506000600681905561094490600890610f9b565b505b6005805460ff19169055565b61095a610ef1565b6109646000610f4b565b565b600154604080516395d89b4160e01b815290516060926001600160a01b0316916395d89b419160048083019260009291908290030181865afa1580156109b0573d6000803e3d6000fd5b505050506040513d6000823e601f3d908101601f191682016040526105419190810190611139565b6109e0610ef1565b60055460ff1615610a255760405162461bcd60e51b815260206004820152600f60248201526e2637ba3a32b93c9034b99037b832b760891b604482015260640161065b565b428111610a7f5760405162461bcd60e51b815260206004820152602260248201527f436c6f73696e672074696d65206d75737420626520696e207468652066757475604482015261726560f01b606482015260840161065b565b6007556005805460ff19166001179055600a80546001600160a01b0319169055565b60055460009060ff16158015610ac45750600a546001600160a01b038381169116145b92915050565b6001600160a01b0381166000908152600b60205260409020548210610b315760405162461bcd60e51b815260206004820152601f60248201527f446f206e6f74206861766520656e6f756768207072697a6520746f6b656e7300604482015260640161065b565b6001600160a01b0381166000908152600b602052604081208054849290610b599084906110bd565b909155505060015460405163a9059cbb60e01b81526001600160a01b038381166004830152602482018590529091169063a9059cbb906044016020604051808303816000875af1158015610bb1573d6000803e3d6000fd5b505050506040513d601f19601f8201168201806040525081019061081491906111e6565b6001546040516370a0823160e01b81526001600160a01b03838116600483015260009216906370a0823190602401602060405180830381865afa158015610c20573d6000803e3d6000fd5b505050506040513d601f19601f82011682018060405250810190610ac49190611208565b610c4c610ef1565b6001600160a01b038116610cb15760405162461bcd60e51b815260206004820152602660248201527f4f776e61626c653a206e6577206f776e657220697320746865207a65726f206160448201526564647265737360d01b606482015260840161065b565b61055181610f4b565b60008211610cc757600080fd5b6000600454600354610cd99190611110565b610ce39084611221565b6001546040516370a0823160e01b81526001600160a01b038581166004830152929350600092909116906370a0823190602401602060405180830381865afa158015610d33573d6000803e3d6000fd5b505050506040513d601f19601f82011682018060405250810190610d579190611208565b905081811015610da95760405162461bcd60e51b815260206004820152601d60248201527f596f7520646f206e6f74206861766520656e6f75676820746f6b656e73000000604482015260640161065b565b8315610e0c57600880546001810182556000919091527ff3f7a9fe364faab93b216da50a3214154f22a0a2b415b23a84c8169e8b636ee30180546001600160a01b0319166001600160a01b03851617905583610e0481611238565b945050610da9565b83600354610e1a9190611221565b60066000828254610e2b9190611110565b9091555050600454610e3e908590611221565b600c6000828254610e4f9190611110565b90915550506001546040516323b872dd60e01b81526001600160a01b03858116600483015230602483015260448201859052909116906323b872dd906064016020604051808303816000875af1158015610ead573d6000803e3d6000fd5b505050506040513d601f19601f8201168201806040525081019061070091906111e6565b600060025482610ac4919061124f565b600060025482610ac49190611221565b6000546001600160a01b031633146109645760405162461bcd60e51b815260206004820181905260248201527f4f776e61626c653a2063616c6c6572206973206e6f7420746865206f776e6572604482015260640161065b565b600080546001600160a01b038381166001600160a01b0319831681178455604051919092169283917f8be0079c531659141344cd1fd0a4f28419497f9722a3daafe3b4186f6b6457e09190a35050565b508054600082559060005260206000209081019061055191905b80821115610fc95760008155600101610fb5565b5090565b80356001600160a01b0381168114610fe457600080fd5b919050565b600060208284031215610ffb57600080fd5b61100482610fcd565b9392505050565b6000806040838503121561101e57600080fd5b8235915061102e60208401610fcd565b90509250929050565b60006020828403121561104957600080fd5b5035919050565b60005b8381101561106b578181015183820152602001611053565b50506000910152565b6020815260008251806020840152611093816040850160208701611050565b601f01601f19169190910160400192915050565b634e487b7160e01b600052601160045260246000fd5b81810381811115610ac457610ac46110a7565b634e487b7160e01b600052601260045260246000fd5b6000826110f5576110f56110d0565b500690565b634e487b7160e01b600052603260045260246000fd5b80820180821115610ac457610ac46110a7565b634e487b7160e01b600052604160045260246000fd5b60006020828403121561114b57600080fd5b815167ffffffffffffffff8082111561116357600080fd5b818401915084601f83011261117757600080fd5b81518181111561118957611189611123565b604051601f8201601f19908116603f011681019083821181831017156111b1576111b1611123565b816040528281528760208487010111156111ca57600080fd5b6111db836020830160208801611050565b979650505050505050565b6000602082840312156111f857600080fd5b8151801515811461100457600080fd5b60006020828403121561121a57600080fd5b5051919050565b8082028115828204841417610ac457610ac46110a7565b600081611247576112476110a7565b506000190190565b60008261125e5761125e6110d0565b50049056fea2646970667358221220410077554b9b065585edd20a96bb7691a7bfa9a652075678a301322057b7896f64736f6c6343000818003360806040523480156200001157600080fd5b506040516200156838038062001568833981016040819052620000349162000206565b8181600362000044838262000301565b50600462000053828262000301565b50620000659150600090503362000099565b620000917f9f2df0fed2c77648de5860a4cc508cd0818c85b8b8a1ab4ceeef8d981c8956a63362000099565b5050620003cd565b60008281526005602090815260408083206001600160a01b038516845290915290205460ff166200013a5760008281526005602090815260408083206001600160a01b03851684529091529020805460ff19166001179055620000f93390565b6001600160a01b0316816001600160a01b0316837f2f8788117e7eff1d82e926ec794901d17c78024a50270940304540a733656f0d60405160405180910390a45b5050565b634e487b7160e01b600052604160045260246000fd5b600082601f8301126200016657600080fd5b81516001600160401b03808211156200018357620001836200013e565b604051601f8301601f19908116603f01168101908282118183101715620001ae57620001ae6200013e565b8160405283815260209250866020858801011115620001cc57600080fd5b600091505b83821015620001f05785820183015181830184015290820190620001d1565b6000602085830101528094505050505092915050565b600080604083850312156200021a57600080fd5b82516001600160401b03808211156200023257600080fd5b620002408683870162000154565b935060208501519150808211156200025757600080fd5b50620002668582860162000154565b9150509250929050565b600181811c908216806200028557607f821691505b602082108103620002a657634e487b7160e01b600052602260045260246000fd5b50919050565b601f821115620002fc576000816000526020600020601f850160051c81016020861015620002d75750805b601f850160051c820191505b81811015620002f857828155600101620002e3565b5050505b505050565b81516001600160401b038111156200031d576200031d6200013e565b62000335816200032e845462000270565b84620002ac565b602080601f8311600181146200036d5760008415620003545750858301515b600019600386901b1c1916600185901b178555620002f8565b600085815260208120601f198616915b828110156200039e578886015182559484019460019091019084016200037d565b5085821015620003bd5787850151600019600388901b60f8161c191681555b5050505050600190811b01905550565b61118b80620003dd6000396000f3fe608060405234801561001057600080fd5b50600436106101425760003560e01c806342966c68116100b8578063a217fddf1161007c578063a217fddf146102a6578063a457c2d7146102ae578063a9059cbb146102c1578063d5391393146102d4578063d547741f146102fb578063dd62ed3e1461030e57600080fd5b806342966c681461023c57806370a082311461024f57806379cc67901461027857806391d148541461028b57806395d89b411461029e57600080fd5b8063248a9ca31161010a578063248a9ca3146101bc5780632f2ff15d146101df578063313ce567146101f457806336568abe14610203578063395093511461021657806340c10f191461022957600080fd5b806301ffc9a71461014757806306fdde031461016f578063095ea7b31461018457806318160ddd1461019757806323b872dd146101a9575b600080fd5b61015a610155366004610e96565b610321565b60405190151581526020015b60405180910390f35b610177610358565b6040516101669190610ee4565b61015a610192366004610f33565b6103ea565b6002545b604051908152602001610166565b61015a6101b7366004610f5d565b610402565b61019b6101ca366004610f99565b60009081526005602052604090206001015490565b6101f26101ed366004610fb2565b610426565b005b60405160128152602001610166565b6101f2610211366004610fb2565b610450565b61015a610224366004610f33565b6104d3565b6101f2610237366004610f33565b6104f5565b6101f261024a366004610f99565b610529565b61019b61025d366004610fde565b6001600160a01b031660009081526020819052604090205490565b6101f2610286366004610f33565b610536565b61015a610299366004610fb2565b61054b565b610177610576565b61019b600081565b61015a6102bc366004610f33565b610585565b61015a6102cf366004610f33565b610600565b61019b7f9f2df0fed2c77648de5860a4cc508cd0818c85b8b8a1ab4ceeef8d981c8956a681565b6101f2610309366004610fb2565b61060e565b61019b61031c366004610ff9565b610633565b60006001600160e01b03198216637965db0b60e01b148061035257506301ffc9a760e01b6001600160e01b03198316145b92915050565b60606003805461036790611023565b80601f016020809104026020016040519081016040528092919081815260200182805461039390611023565b80156103e05780601f106103b5576101008083540402835291602001916103e0565b820191906000526020600020905b8154815290600101906020018083116103c357829003601f168201915b5050505050905090565b6000336103f881858561065e565b5060019392505050565b600033610410858285610782565b61041b8585856107fc565b506001949350505050565b600082815260056020526040902060010154610441816109a0565b61044b83836109aa565b505050565b6001600160a01b03811633146104c55760405162461bcd60e51b815260206004820152602f60248201527f416363657373436f6e74726f6c3a2063616e206f6e6c792072656e6f756e636560448201526e103937b632b9903337b91039b2b63360891b60648201526084015b60405180910390fd5b6104cf8282610a30565b5050565b6000336103f88185856104e68383610633565b6104f09190611073565b61065e565b7f9f2df0fed2c77648de5860a4cc508cd0818c85b8b8a1ab4ceeef8d981c8956a661051f816109a0565b61044b8383610a97565b6105333382610b56565b50565b610541823383610782565b6104cf8282610b56565b60009182526005602090815260408084206001600160a01b0393909316845291905290205460ff1690565b60606004805461036790611023565b600033816105938286610633565b9050838110156105f35760405162461bcd60e51b815260206004820152602560248201527f45524332303a2064656372656173656420616c6c6f77616e63652062656c6f77604482015264207a65726f60d81b60648201526084016104bc565b61041b828686840361065e565b6000336103f88185856107fc565b600082815260056020526040902060010154610629816109a0565b61044b8383610a30565b6001600160a01b03918216600090815260016020908152604080832093909416825291909152205490565b6001600160a01b0383166106c05760405162461bcd60e51b8152602060048201526024808201527f45524332303a20617070726f76652066726f6d20746865207a65726f206164646044820152637265737360e01b60648201526084016104bc565b6001600160a01b0382166107215760405162461bcd60e51b815260206004820152602260248201527f45524332303a20617070726f766520746f20746865207a65726f206164647265604482015261737360f01b60648201526084016104bc565b6001600160a01b0383811660008181526001602090815260408083209487168084529482529182902085905590518481527f8c5be1e5ebec7d5bd14f71427d1e84f3dd0314c0f7b2291e5b200ac8c7c3b925910160405180910390a3505050565b600061078e8484610633565b905060001981146107f657818110156107e95760405162461bcd60e51b815260206004820152601d60248201527f45524332303a20696e73756666696369656e7420616c6c6f77616e636500000060448201526064016104bc565b6107f6848484840361065e565b50505050565b6001600160a01b0383166108605760405162461bcd60e51b815260206004820152602560248201527f45524332303a207472616e736665722066726f6d20746865207a65726f206164604482015264647265737360d81b60648201526084016104bc565b6001600160a01b0382166108c25760405162461bcd60e51b815260206004820152602360248201527f45524332303a207472616e7366657220746f20746865207a65726f206164647260448201526265737360e81b60648201526084016104bc565b6001600160a01b0383166000908152602081905260409020548181101561093a5760405162461bcd60e51b815260206004820152602660248201527f45524332303a207472616e7366657220616d6f756e7420657863656564732062604482015265616c616e636560d01b60648201526084016104bc565b6001600160a01b03848116600081815260208181526040808320878703905593871680835291849020805487019055925185815290927fddf252ad1be2c89b69c2b068fc378daa952ba7f163c4a11628f55a4df523b3ef910160405180910390a36107f6565b6105338133610c88565b6109b4828261054b565b6104cf5760008281526005602090815260408083206001600160a01b03851684529091529020805460ff191660011790556109ec3390565b6001600160a01b0316816001600160a01b0316837f2f8788117e7eff1d82e926ec794901d17c78024a50270940304540a733656f0d60405160405180910390a45050565b610a3a828261054b565b156104cf5760008281526005602090815260408083206001600160a01b0385168085529252808320805460ff1916905551339285917ff6391f5c32d9c69d2a47ea670b442974b53935d1edc7fd64eb21e047a839171b9190a45050565b6001600160a01b038216610aed5760405162461bcd60e51b815260206004820152601f60248201527f45524332303a206d696e7420746f20746865207a65726f20616464726573730060448201526064016104bc565b8060026000828254610aff9190611073565b90915550506001600160a01b038216600081815260208181526040808320805486019055518481527fddf252ad1be2c89b69c2b068fc378daa952ba7f163c4a11628f55a4df523b3ef910160405180910390a35050565b6001600160a01b038216610bb65760405162461bcd60e51b815260206004820152602160248201527f45524332303a206275726e2066726f6d20746865207a65726f206164647265736044820152607360f81b60648201526084016104bc565b6001600160a01b03821660009081526020819052604090205481811015610c2a5760405162461bcd60e51b815260206004820152602260248201527f45524332303a206275726e20616d6f756e7420657863656564732062616c616e604482015261636560f01b60648201526084016104bc565b6001600160a01b0383166000818152602081815260408083208686039055600280548790039055518581529192917fddf252ad1be2c89b69c2b068fc378daa952ba7f163c4a11628f55a4df523b3ef910160405180910390a3505050565b610c92828261054b565b6104cf57610c9f81610ce1565b610caa836020610cf3565b604051602001610cbb929190611086565b60408051601f198184030181529082905262461bcd60e51b82526104bc91600401610ee4565b60606103526001600160a01b03831660145b60606000610d028360026110fb565b610d0d906002611073565b67ffffffffffffffff811115610d2557610d25611112565b6040519080825280601f01601f191660200182016040528015610d4f576020820181803683370190505b509050600360fc1b81600081518110610d6a57610d6a611128565b60200101906001600160f81b031916908160001a905350600f60fb1b81600181518110610d9957610d99611128565b60200101906001600160f81b031916908160001a9053506000610dbd8460026110fb565b610dc8906001611073565b90505b6001811115610e40576f181899199a1a9b1b9c1cb0b131b232b360811b85600f1660108110610dfc57610dfc611128565b1a60f81b828281518110610e1257610e12611128565b60200101906001600160f81b031916908160001a90535060049490941c93610e398161113e565b9050610dcb565b508315610e8f5760405162461bcd60e51b815260206004820181905260248201527f537472696e67733a20686578206c656e67746820696e73756666696369656e7460448201526064016104bc565b9392505050565b600060208284031215610ea857600080fd5b81356001600160e01b031981168114610e8f57600080fd5b60005b83811015610edb578181015183820152602001610ec3565b50506000910152565b6020815260008251806020840152610f03816040850160208701610ec0565b601f01601f19169190910160400192915050565b80356001600160a01b0381168114610f2e57600080fd5b919050565b60008060408385031215610f4657600080fd5b610f4f83610f17565b946020939093013593505050565b600080600060608486031215610f7257600080fd5b610f7b84610f17565b9250610f8960208501610f17565b9150604084013590509250925092565b600060208284031215610fab57600080fd5b5035919050565b60008060408385031215610fc557600080fd5b82359150610fd560208401610f17565b90509250929050565b600060208284031215610ff057600080fd5b610e8f82610f17565b6000806040838503121561100c57600080fd5b61101583610f17565b9150610fd560208401610f17565b600181811c9082168061103757607f821691505b60208210810361105757634e487b7160e01b600052602260045260246000fd5b50919050565b634e487b7160e01b600052601160045260246000fd5b808201808211156103525761035261105d565b7f416363657373436f6e74726f6c3a206163636f756e74200000000000000000008152600083516110be816017850160208801610ec0565b7001034b99036b4b9b9b4b733903937b6329607d1b60179184019182015283516110ef816028840160208801610ec0565b01602801949350505050565b80820281158282048414176103525761035261105d565b634e487b7160e01b600052604160045260246000fd5b634e487b7160e01b600052603260045260246000fd5b60008161114d5761114d61105d565b50600019019056fea2646970667358221220123c7aa90da86ef8958deca2d24e3b1fc2a6dc39c29f6576be2974177805cb6764736f6c63430008180033",
  "devdoc": {
    "custom:teaching": "This is a contract meant for teaching only",
    "details": "This contract implements a relatively weak randomness source, since there is no cliff period between the randao reveal and the actual usage in this contract",
    "kind": "dev",
    "methods": {
      "closeLottery()": {
        "details": "Anyone can call this function at any time after the closing time"
      },
      "constructor": {
        "params": {
          "_betFee": "Amount of tokens required for placing a bet that goes for the owner pool",
          "_betPrice": "Amount of tokens required for placing a bet that goes for the prize pool",
          "_purchaseRatio": "Amount of tokens given per ETH paid",
          "_tokenName": "Name of the token used for payment",
          "_tokenSymbol": "Symbol of the token used for payment"
        }
      },
      "owner()": {
        "details": "Returns the address of the current owner."
      },
      "purchaseTokens()": {
        "details": "This implementation is prone to rounding problems"
      },
      "renounceOwnership()": {
        "details": "Leaves the contract without owner. It will not be possible to call `onlyOwner` functions. Can only be called by the current owner. NOTE: Renouncing ownership will leave the contract without an owner, thereby disabling any functionality that is only available to the owner."
      },
      "transferOwnership(address)": {
        "details": "Transfers ownership of the contract to a new account (`newOwner`). Can only be called by the current owner."
      }
    },
    "title": "A very simple lottery contract",
    "version": 1
  },
  "userdoc": {
    "kind": "user",
    "methods": {
      "bet(address)": {
        "notice": "Charges the bet price and creates a new bet slot with the sender's address"
      },
      "betFee()": {
        "notice": "Amount of tokens required for placing a bet that goes for the owner pool"
      },
      "betMany(uint256,address)": {
        "notice": "Calls the bet function `times` times"
      },
      "betPrice()": {
        "notice": "Amount of tokens required for placing a bet that goes for the prize pool"
      },
      "closeLottery()": {
        "notice": "Closes the lottery and calculates the prize, if any"
      },
      "constructor": {
        "notice": "Constructor function"
      },
      "openBets(uint256)": {
        "notice": "Opens the lottery for receiving bets"
      },
      "ownerWithdraw(uint256)": {
        "notice": "Withdraws `amount` from the owner's pool"
      },
      "paymentToken()": {
        "notice": "Address of the token used as payment for the bets"
      },
      "prizeWithdraw(uint256,address)": {
        "notice": "Withdraws `amount` from that accounts's prize pool"
      },
      "purchaseRatio()": {
        "notice": "Amount of tokens given per ETH paid"
      },
      "purchaseTokens()": {
        "notice": "Gives tokens based on the amount of ETH sent and the purchase ratio"
      },
      "returnTokens(uint256,address)": {
        "notice": "Burns `amount` tokens and give the equivalent ETH back to user"
      }
    },
    "notice": "You can use this contract for running a very simple lottery",
    "version": 1
  },
  "storageLayout": {
    "storage": [
      {
        "astId": 396,
        "contract": "contracts/Lottery.sol:Lottery",
        "label": "_owner",
        "offset": 0,
        "slot": "0",
        "type": "t_address"
      },
      {
        "astId": 2506,
        "contract": "contracts/Lottery.sol:Lottery",
        "label": "paymentToken",
        "offset": 0,
        "slot": "1",
        "type": "t_contract(LotteryToken)3092"
      },
      {
        "astId": 2509,
        "contract": "contracts/Lottery.sol:Lottery",
        "label": "purchaseRatio",
        "offset": 0,
        "slot": "2",
        "type": "t_uint256"
      },
      {
        "astId": 2512,
        "contract": "contracts/Lottery.sol:Lottery",
        "label": "betPrice",
        "offset": 0,
        "slot": "3",
        "type": "t_uint256"
      },
      {
        "astId": 2515,
        "contract": "contracts/Lottery.sol:Lottery",
        "label": "betFee",
        "offset": 0,
        "slot": "4",
        "type": "t_uint256"
      },
      {
        "astId": 2517,
        "contract": "contracts/Lottery.sol:Lottery",
        "label": "betsOpen",
        "offset": 0,
        "slot": "5",
        "type": "t_bool"
      },
      {
        "astId": 2519,
        "contract": "contracts/Lottery.sol:Lottery",
        "label": "prizePool",
        "offset": 0,
        "slot": "6",
        "type": "t_uint256"
      },
      {
        "astId": 2521,
        "contract": "contracts/Lottery.sol:Lottery",
        "label": "betsClosingTime",
        "offset": 0,
        "slot": "7",
        "type": "t_uint256"
      },
      {
        "astId": 2524,
        "contract": "contracts/Lottery.sol:Lottery",
        "label": "_slots",
        "offset": 0,
        "slot": "8",
        "type": "t_array(t_address)dyn_storage"
      },
      {
        "astId": 2526,
        "contract": "contracts/Lottery.sol:Lottery",
        "label": "betFees",
        "offset": 0,
        "slot": "9",
        "type": "t_uint256"
      },
      {
        "astId": 2528,
        "contract": "contracts/Lottery.sol:Lottery",
        "label": "winner",
        "offset": 0,
        "slot": "10",
        "type": "t_address"
      },
      {
        "astId": 2532,
        "contract": "contracts/Lottery.sol:Lottery",
        "label": "prizeAmount",
        "offset": 0,
        "slot": "11",
        "type": "t_mapping(t_address,t_uint256)"
      },
      {
        "astId": 2534,
        "contract": "contracts/Lottery.sol:Lottery",
        "label": "ownerPool",
        "offset": 0,
        "slot": "12",
        "type": "t_uint256"
      }
    ],
    "types": {
      "t_address": {
        "encoding": "inplace",
        "label": "address",
        "numberOfBytes": "20"
      },
      "t_array(t_address)dyn_storage": {
        "base": "t_address",
        "encoding": "dynamic_array",
        "label": "address[]",
        "numberOfBytes": "32"
      },
      "t_bool": {
        "encoding": "inplace",
        "label": "bool",
        "numberOfBytes": "1"
      },
      "t_contract(LotteryToken)3092": {
        "encoding": "inplace",
        "label": "contract LotteryToken",
        "numberOfBytes": "20"
      },
      "t_mapping(t_address,t_uint256)": {
        "encoding": "mapping",
        "key": "t_address",
        "label": "mapping(address => uint256)",
        "numberOfBytes": "32",
        "value": "t_uint256"
      },
      "t_uint256": {
        "encoding": "inplace",
        "label": "uint256",
        "numberOfBytes": "32"
      }
    }
  }
}